:100576003031323334353637383954657374206246
:10058600792044533138423230004572726F7221FD
:10059600436865636B210054656D703A0043656E70
:0205A6007400DF
:100400000473000000001021202044657369676EAA
:10041000656420627920200013335765694C75208C
:10042000616E6420597559616F6A696100114654A3
:10043000686572652773206E6F206563686F2E0094
:10044000125720207777772E686A6D63752E636F59
:100450006D2020000A6944697374616E63653A0017
:0F060500C2A57F0A7E00120614D2A57F0A7E00CE
:10061400D3EF9400EE940040147D0A7C00ED1D702D
:0D062400011CED4C70F7EF1F70E61E80E327
:0106310022A6
:0A07F4008F80C290120605C2A522F4
:0307DB002430FFC8
:0A07DE008F80D290120605C2A522FA
:1004DA00C2A6C2A77F381207F47F147E0012061440
:1004EA007F0F1207F47F147E001206147F0612078C
:1004FA00F47F147E001206147F011207F47F147E23
:04050A0000020614D1
:05063200097F327E008B
:10063700E4FDFCC3ED9FEC9E5015E4FBFA0BBB00F9
:0F064700010AEB64034A70F50DBD00010C80E45D
:010656002281
:020721008F0C3B
:10072300E4F9E9C3950C5011C2A37FE87E031206D6
:0907330037D2A31206370980E950
:01073C00229A
:10073D00EF1FAA0670011ED39400EA9400400BE44B
:0A074D00FDEDC3947D50E90D80F727
:01075700227F
:0E07CD00758901758A66758CFCD2A9D2AF229F
:1007BD00D295D2B2E4F531F576F575F574F573226F
:1006C100ED2480FF1207F4E4F50C12000EFF12076F
:1006D100DE740129F9E43AFA050CE50CC3941040E3
:0106E100E92F
:0106E20022F5
:060322008D0CAB07AA06DA
:100328007C037DE81200398F0D7C007D64AF03AE3D
:10033800021200397C007D0A1200398D0E7C007D86
:100348000AAF03AE021200397C007D0A1200398D13
:100358000FAE02AF037C007D0A120039AB05E50C35
:100368002480FF1207F4E50D1207DBE50E1207DB08
:10037800E50F2430FF1207DE7F2E1207DEEB243054
:0E038800FF1207DE7F631207DE7F6D0207DEC5
:0C07E800D2957F017E0012073DC29522D1
:10039600D28C20B2FDC28CAD8AAF8CEFFE7C00E41D
:1003A6002DFFEC3EAB07FA749A2BFB74033AFAAFB7
:1003B600317E007C037DE8120027EF2BFFEE3AFE2C
:1003C600E48F768E75F574F573758A66758CFC7F89
:1003D6001EFE12073DE47FA77E0DFDFCAB76AA75D7
:1003E600A974A87312006FE47B207A4EF9F8120400
:0903F600618F768E758D748C7395
:0103FF0022DB
:10078800C290D291D2A500000000A2879200C2A513
:02079800A200BD
:01079A00223C
:07067B007F051206377F38EE
:1006820012078840FBC290C291C2A500008F800071
:0C069200000000D2A500000000C2A5225C
:07000300EF4480FF020682BA
:0606E300EE90057693FF86
:1006E90012078840FBD290C291C2A58F80000000FA
:0A06F90000D2A500000000C2A522F7
:1005D7007F0F7E0012067D12067B12067B7F0512B7
:1005E70006377F0C1206827F051206370F12068226
:0E05F7001F1206377F011206827F05020637AB
:1004A500D2A2E4F5320532E532B402F9C2A2E4F58E
:1004B500320532E532B4C8F9D2A2E4F5320532E5A7
:1004C50032B40AF9A2A29200E4F5320532E532B45B
:0404D500C8F9A200C0
:0104D9002200
:1005A800E4FED2A200C2A2EFC313FF00D2A2E4F578
:1005B800320532E532B402F930A2054307808000E3
:0E05C800E4F5320532E532B408F90EBE08D46F
:0105D6002202
:10050E00E4FED2A200C2A2EF1392A2E4F5320532AB
:10051E00E532B40AF9D2A2E4F5320532E532B4017D
:10052E00F9EFC313FF0EBE08D9E4F5320532E532FA
:03053E00B404F909
:010541002297
:10070300E4FF120003E4F9E990059093FF600D12F2
:0E07130006E9097F647E0012063780EB80FE47
:10075800E4FF120003E4F9E990059D93FF60081295
:0707680006E912063280F0E1
:01076F002267
:10079B007F091200037F2E1206E97F327E000206CC
:0107AB003716
:100770007F0C120003E4F9E99005A393FF600812CF
:0707800006E912063280F0C9
:01078700224F
:10054200EF75F06484FEEF75F06484E5F075F00AEF
:1005520084FDEF75F00A84ACF07F061200031206E8
:10056200E3ED93FF1206E9EC93FF1206E97F327E78
:040572000002063746
:1007AC00AE077F0A1200031206E37F327E000206B8
:0107BC003705
:100657001204A57FCC12050E7F4412050EE4F53275
:100667000532E532B464F91204A57FCC12050E7F7A
:04067700BE02050EAC
:1001E100C2911204DA1207CD1207BD7F0212072154
:1001F1007B007A007921E4FD1206C17A0079337D12
:10020100401206C17F307E751206377B007A007975
:1002110057E4FD1206C17A0079467D401206C112EB
:1002210004A5500312070312075812079B12077007
:100231001207E830B2FD1203961206571205A88F75
:10024100081205A88F09E508C4540FFFE509C45435
:10025100F02FF50AE508540F75F00AA4FFE5F0C484
:10026100F854F0C8EFC4540F48F50BAF0A12054219
:10027100AF0B1207AC7B007A0079697D401206C191
:10028100AE75AF767D491203221207BD7F647E00F1
:0502910012073D809BF7
:03000B0002069E4C
:10069E00C0E0C0D0C28D758A66758CFC0531E5311F
:1006AE00B4120BC28C758A66758CFC753100D0D075
:0306BE00D0E03257
:0300000002029663
:0C029600787FE4F6D8FD7581760202DD69
:10000E00BB010689828A83E0225002E722BBFE02F0
:09001E00E32289828A83E4932223
:10002700EF8DF0A4A8F0CF8CF0A428CE8DF0A42EED
:02003700FE22A7
:10003900C2D5EC30E709B2D5E4C39DFDE49CFCEEE2
:1000490030E715B2D5E4C39FFFE49EFE1200BEC39C
:10005900E49DFDE49CFC80031200BE30D507C3E497
:060069009FFFE49EFE2251
:10006F00E88FF0A4CC8BF0A42CFCE98EF0A42CFC30
:10007F008AF0EDA42CFCEA8EF0A4CDA8F08BF0A4AE
:10008F002DCC3825F0FDE98FF0A42CCD35F0FCEB0D
:10009F008EF0A4FEA9F0EB8FF0A4CFC5F02ECD39D2
:0F00AF00FEE43CFCEAA42DCE35F0FDE43CFC223F
:10046100C2D5E830E70FB2D5E4C39BFBE49AFAE4C6
:1004710099F9E498F8EC30E717B2D5120497120114
:100481004FE4C39BFBE49AFAE499F9E498F88003FA
:1004910012014F30D50DE4C39FFFE49EFEE49DFDA4
:0404A100E49CFC22B9
:1002A2000201E1E493A3F8E493A34003F68001F290
:1002B20008DFF48029E493A3F85407240CC8C3335D
:1002C200C4540F4420C8834004F456800146F6DF2C
:1002D200E4800B0102040810204080900400E47EB8
:1002E200019360BCA3FF543F30E509541FFEE49321
:1002F200A360010ECF54C025E060A840B8E493A3E8
:10030200FAE493A3F8E493A3C8C582C8CAC583CA12
:10031200F0A3C8C582C8CAC583CADFE9DEE780BECA
:01046000009B
:1000BE00BC000BBE0029EF8DF084FFADF022E4CC26
:1000CE00F875F008EF2FFFEE33FEEC33FCEE9DECEF
:1000DE00984005FCEE9DFE0FD5F0E9E4CEFD22ED35
:1000EE00F8F5F0EE8420D21CFEADF075F008EF2F7F
:1000FE00FFED33FD4007985006D5F0F222C398FD70
:05010E000FD5F0EA220C
:1001130075F008758200EF2FFFEE33FECD33CDCCA3
:1001230033CCC58233C5829BED9AEC99E582984026
:100133000CF582EE9BFEED9AFDEC99FC0FD5F0D603
:10014300E4CEFBE4CDFAE4CCF9A88222B800C1B92D
:100153000059BA002DEC8BF084CFCECDFCE5F0CB6B
:10016300F97818EF2FFFEE33FEED33FDEC33FCEBA4
:1001730033FB10D703994004EB99FB0FD8E5E4F95F
:10018300FA227818EF2FFFEE33FEED33FDEC33FC4C
:10019300C933C910D7059BE99A4007EC9BFCE99A40
:1001A300F90FD8E0E4C9FAE4CCFB2275F010EF2F85
:1001B300FFEE33FEED33FDCC33CCC833C810D70785
:1001C3009BEC9AE899400AED9BFDEC9AFCE899F8C0
:0E01D3000FD5F0DAE4CDFBE4CCFAE4C8F92253
:00000001FF
