:100764002E003031323334353637383954657374AA
:100774002062792044533138423230004572726F1E
:0F0784007221436865636B2100543A00563A00B6
:1005CE00046000000000112120202044657369673B
:1005DE006E656420627920200011345765694C7570
:1005EE00202620597559616F6A696100114554685A
:1005FE006572652773206E6F206563686F2E000A23
:10060E005644697374616E63653A00046600000DAA
:01061E007D5E
:0F07C100C2A57F0A7E001207D0D2A57F0A7E0054
:1007D000D3EF9400EE940040147D0A7C00ED1D7070
:0D07E000011CED4C70F7EF1F70E61E80E36A
:0107ED0022E9
:05096700AB052480FF38
:0A096C008F80C2901207C1C2A522BD
:0F091A002430FF1209297F2E120929EB2430FF08
:0A0929008F80D2901207C1C2A522F0
:10069900C2A6C2A77F3812096C7F147E001207D048
:1006A9007F0F12096C7F147E001207D07F06120992
:1006B9006C7F147E001207D07F0112096C7F147EB3
:0406C900000207D054
:0C07EE00E50EFD7C007E037FE812003960
:1007FA00E4FDFCC3ED9FEC9E5015E4FBFA0BBB0035
:0F080A00010AEB64034A70F50DBD00010C80E498
:0108190022BC
:0208E4008F0E75
:1008E600E4F50FE50FC3950E500EC2A31207EED224
:0808F600A31207EE050F80EBD1
:0108FE0022D7
:1008FF00EF1FAA0670011ED39400EA9400400BE488
:0A090F00FDEDC3947D50E90D80F763
:0109190022BB
:0E097600758901758A66758CFCD2A9D2AF22F4
:10095700C2B6D2B2E4F532F563F562F561F560220D
:10088400ED2480FF12096CE4F50A12000EFF120930
:1008940029740129F9E43AFA050AE50AC3941040D7
:0108A400E96A
:0108A5002230
:060507008D0AAB07AA06F5
:10050D007C037DE812008E8F0B7C007D64AF03AE03
:10051D000212008E7C007D0A12008E8D0C7C007DF7
:10052D000AAF03AE0212008E7C007D0A12008E8D82
:10053D000DAE02AF037C007D0A12008EE50A120992
:10054D0067E50B2430FF120929E50C2430FF120951
:10055D0029E50D12091A7F631209297F6D020929F8
:06056D008D0AAB07AA068F
:100573007C037DE812008E8F0B7C007D64AF03AE9D
:100583000212008E7C007D0A12008E8D0C7C007D91
:100593000AAF03AE0212008E7C007D0A12008E8D1C
:1005A3000DAE02AF037C007D0A12008EE50A12092C
:1005B30067E50B2430FF120929E50C2430FF1209EB
:0B05C30029E50D12091A7F6D020929BD
:10036D00D2B600000000000000000000C2B6000080
:10037D000000000000000000D2B6000000000000E8
:10038D0000000000C2B600000000000000000000E8
:10039D00D2B600000000000000000000C2B6000050
:1003AD000000000000000000D2B6000000000000B8
:1003BD0000000000C2B600000000000000000000B8
:1003CD00D2B600000000000000000000C2B6000020
:1003DD000000000000000000D2B600000000000088
:1003ED0000000000C2B60000000000000000000088
:0103FD0022DD
:10048A00750A00750B0130B20AE532B411F8E4F5C9
:10049A000AF50BC28CAD8AAF8CEFFE7C00E42DFF0F
:1004AA00EC3EAB07FA749A2BFB74033AFAAF327E2E
:1004BA00007C037DE8120027EF2BFFEE3AFEE48F63
:1004CA00638E62F561F560758A66758CFC7F1EFE27
:1004DA001208FFAF63AE62AD61AC60AB69AA68A9EE
:1004EA0067A8661200C4E47B207A4EF9F812062047
:0C04FA008F638E628D618C60AE0AAF0BC8
:0105060022D2
:10093300C290D291D2A500000000A2879200C2A566
:02094300A20010
:01094500228F
:07083E007F051207FA7F3865
:1008450012093340FBC290C291C2A500008F8000FF
:0C085500000000D2A500000000C2A52297
:07000300EF4480FF020845F5
:0608A600EE90076693FFCF
:1008AC0012093340FBD290C291C2A58F8000000088
:0A08BC0000D2A500000000C2A52232
:100793007F0F7E0012084012083E12083E7F0512AA
:1007A30007FA7F0C1208457F051207FA0F12084556
:0E07B3001F1207FA7F011208457F050207FAA0
:10066400D2A2E4F5330533E533B402F9C2A2E4F5CA
:10067400330533E533B4C8F9D2A2E4F5330533E5E1
:1006840033B40AF9A2A29200E4F5330533E533B496
:04069400C8F9A200FF
:01069800223F
:10073500E4FED2A200C2A2EFC313FF00D2A2E4F5E9
:10074500330533E533B402F930A205430780800051
:0E075500E4F5330533E533B408F90EBE08D4DD
:010763002273
:1006CD00E4FED2A200C2A2EF1392A2E4F5330533E9
:1006DD00E533B40AF9D2A2E4F5330533E533B401B9
:1006ED00F9EFC313FF0EBE08D9E4F5330533E53337
:0306FD00B404F949
:0107000022D6
:1008C600E4FF120003E4F9E990078093FF600D123C
:0E08D60008AC097F647E001207FA80EB80FEFA
:10070100EF75F06484FEEF75F06484E5F075F00A2E
:1007110084FDEF75F00A84ACF07F02120003120829
:10072100A6ED93FF1208ACEC93FF1208AC7F327E6A
:04073100000207FAC1
:10094600AE077F061200031208A67F327E0002075A
:01095600FAA6
:10081A001206647FCC1206CD7F441206CDE4F5336E
:10082A000533E533B464F91206647FCC1206CD7F32
:04083A00BE0206CD27
:1001E100E4F564F56575697D75680DF567F566C2B9
:1001F100911206991209761209577B007A0079212A
:10020100E4FD1208847A0079347D401208847F303D
:100211007E751207FA7B007A007934E4FD120884B6
:100221007A0079457D401208841206645003120851
:10023100C67BFF7A07798DE4FD1208847A07796419
:100241007D051208847A0779907D08120884E4F507
:1002510008F509120957D28CD2B60000000000003F
:1002610000000000C2B60000000000000000000015
:10027100D2B600000000000000000000C2B600007D
:100281000000000000000000D2B6000000000000E5
:1002910000000000C2B600000000000000000000E5
:1002A100D2B600000000000000000000C2B600004D
:1002B1000000000000000000D2B6000000000000B5
:1002C10000000000C2B600000000000000000000B5
:1002D100D2B600000000000000000000C2B600001D
:1002E100000000000000000030B2FD12048A8E08F8
:1002F1008F0912081A120735AB07120735EBC454E0
:100301000FFEEFC454F02EFA75F006A424F3FFE5B6
:10031100F0340CFEE48F698E68F567F566EB540FD7
:1003210075F00AA4FFE5F0C4F854F0C8EFC4540F07
:1003310048F9AF02120701AF011209467B007A00AA
:1003410079567D40120884E50945086009AE62AF1F
:10035100637D49120507AE68AF697D0A12056D120A
:0C03610009577FE87E031208FF02024FDC
:03000B0002086187
:10086100C0E0C0D0C28D758A66758CFC0532E53258
:10087100B4120BC28C758A66758CFC753200D0D0AF
:03088100D0E03292
:030000000203FEFA
:0C03FE00787FE4F6D8FD758169020445A3
:10000E00BB010689828A83E0225002E722BBFE02F0
:09001E00E32289828A83E4932223
:10002700EF8DF0A4A8F0CF8CF0A428CE8DF0A42EED
:02003700FE22A7
:10003900BC000BBE0029EF8DF084FFADF022E4CCAB
:10004900F875F008EF2FFFEE33FEEC33FCEE9DEC74
:10005900984005FCEE9DFE0FD5F0E9E4CEFD22EDBA
:10006900F8F5F0EE8420D21CFEADF075F008EF2F04
:10007900FFED33FD4007985006D5F0F222C398FDF5
:050089000FD5F0EA2292
:10008E00C2D5EC30E709B2D5E4C39DFDE49CFCEE8D
:10009E0030E715B2D5E4C39FFFE49EFE120039C3CC
:1000AE00E49DFDE49CFC800312003930D507C3E4C7
:0600BE009FFFE49EFE22FC
:1000C400E88FF0A4CC8BF0A42CFCE98EF0A42CFCDB
:1000D4008AF0EDA42CFCEA8EF0A4CDA8F08BF0A459
:1000E4002DCC3825F0FDE98FF0A42CCD35F0FCEBB8
:1000F4008EF0A4FEA9F0EB8FF0A4CFC5F02ECD397D
:0F010400FEE43CFCEAA42DCE35F0FDE43CFC22E9
:10062000C2D5E830E70FB2D5E4C39BFBE49AFAE405
:1006300099F9E498F8EC30E717B2D5120656120192
:100640004FE4C39BFBE49AFAE499F9E498F8800339
:1006500012014F30D50DE4C39FFFE49EFEE49DFDE3
:04066000E49CFC22F8
:10040A000201E1E493A3F8E493A34003F68001F226
:10041A0008DFF48029E493A3F85407240CC8C333F3
:10042A00C4540F4420C8834004F456800146F6DFC2
:10043A00E4800B01020408102040809005CEE47E7F
:10044A00019360BCA3FF543F30E509541FFEE493B7
:10045A00A360010ECF54C025E060A840B8E493A37E
:10046A00FAE493A3F8E493A3C8C582C8CAC583CAA9
:10047A00F0A3C8C582C8CAC583CADFE9DEE780BE61
:01061F0000DA
:1001130075F008758200EF2FFFEE33FECD33CDCCA3
:1001230033CCC58233C5829BED9AEC99E582984026
:100133000CF582EE9BFEED9AFDEC99FC0FD5F0D603
:10014300E4CEFBE4CDFAE4CCF9A88222B800C1B92D
:100153000059BA002DEC8BF084CFCECDFCE5F0CB6B
:10016300F97818EF2FFFEE33FEED33FDEC33FCEBA4
:1001730033FB10D703994004EB99FB0FD8E5E4F95F
:10018300FA227818EF2FFFEE33FEED33FDEC33FC4C
:10019300C933C910D7059BE99A4007EC9BFCE99A40
:1001A300F90FD8E0E4C9FAE4CCFB2275F010EF2F85
:1001B300FFEE33FEED33FDCC33CCC833C810D70785
:1001C3009BEC9AE899400AED9BFDEC9AFCE899F8C0
:0E01D3000FD5F0DAE4CDFBE4CCFAE4C8F92253
:00000001FF
