:1005B7003031323334353637383954657374206205
:1005C700792044533138423230004572726F7221BC
:1005D700436865636B210054656D703A0043656E2F
:0205E70074009E
:100441000473000000001021202044657369676E69
:10045100656420627920200013335765694C75204B
:10046100616E6420597559616F6A69610011465462
:10047100686572652773206E6F206563686F2E0053
:10048100125720207777772E686A6D63752E636F18
:100491006D2020000A6944697374616E63653A00D6
:0F067500C2A57F0A7E00120684D2A57F0A7E00EE
:10068400D3EF9400EE940040147D0A7C00ED1D70BD
:0D069400011CED4C70F7EF1F70E61E80E3B7
:0106A1002236
:0A0868008F80C290120675C2A5220F
:03085B002430FF47
:0A085E008F80D290120675C2A52209
:10051B00C2A6C2A77F381208687F147E0012068419
:10052B007F0F1208687F147E001206847F06120864
:10053B00687F147E001206847F011208687F147E88
:04054B000002068420
:0C06A200E50CFD7C007E037FE8120039AF
:1006AE00E4FDFCC3ED9FEC9E5015E4FBFA0BBB0082
:0F06BE00010AEB64034A70F50DBD00010C80E4E6
:0106CD00220A
:0207D2008F0C8A
:1007D400E4F50DE50DC3950C500EC2A31206A2D28A
:0807E400A31206A2050D80EB33
:0107EC0022EA
:1007ED00EF1FAA0670011ED39400EA9400400BE49B
:0A07FD00FDEDC3947D50E90D80F777
:0108070022CE
:0E084D00758901758A66758CFCD2A9D2AF221E
:10083D00C295C2B2E4F531F576F575F574F573220E
:10073800ED2480FF120868E4F50C12000EFF120881
:100748005E740129F9E43AFA050CE50CC3941040EB
:01075800E9B7
:01075900227D
:0603CD008D0CAB07AA062F
:1003D3007C037DE812008E8F0D7C007D64AF03AE3D
:1003E3000212008E7C007D0A12008E8D0E7C007D31
:1003F3000AAF03AE0212008E7C007D0A12008E8DBE
:100403000FAE02AF037C007D0A12008EAB05E50C34
:100413002480FF120868E50D12085BE50E12085BE5
:10042300E50F2430FF12085E7F2E12085EEB2430A6
:0E043300FF12085E7F6312085E7F6D02085E96
:1005E900E4FDFCC3ED9FEE6480F8EC648098501E36
:1005F90000000000000000000000D295000000008B
:0E0609000000000000C2950DBD00010C80D560
:0106170022C0
:10034A00D28C20B214E531B4120BC28C758A667550
:10035A008CFCE4F531E4FEFF22C28CAD8AAF8CEF4F
:10036A00FE7C00E42DFFEC3EAB07FA749A2BFB747B
:10037A00033AFAAF317E007C037DE8120027EF2BA7
:10038A00FFEE3AFEE48F768E75F574F573758A661C
:10039A00758CFC7F1EFE1207EDAF76AE75AD74ACA0
:1003AA0073AB7AAA79A978A8771200C4E47B207A79
:1003BA004EF9F81204A28F768E758D748C737E00B6
:0203CA007F01B1
:0103CC00220E
:10080800C290D291D2A500000000A2879200C2A592
:02081800A2003C
:01081A0022BB
:0706F2007F051206AE7F3800
:1006F90012080840FBC290C291C2A500008F800079
:0C070900000000D2A500000000C2A522E4
:07000300EF4480FF0206F943
:06075A00EE9005B793FFCD
:1007600012080840FBD290C291C2A58F8000000001
:0A07700000D2A500000000C2A5227F
:100647007F0F7E001206F41206F21206F27F0512E1
:1006570006AE7F0C1206F97F051206AE0F1206F9D9
:0E0667001F1206AE7F011206F97F050206AED5
:1004E600D2A2E4F5320532E532B402F9C2A2E4F54D
:1004F600320532E532B4C8F9D2A2E4F5320532E566
:1005060032B40AF9A2A29200E4F5320532E532B419
:04051600C8F9A2007E
:01051A0022BE
:10061800E4FED2A200C2A2EFC313FF00D2A2E4F507
:10062800320532E532B402F930A205430780800072
:0E063800E4F5320532E532B408F90EBE08D4FE
:010646002291
:10054F00E4FED2A200C2A2EF1392A2E4F53205326A
:10055F00E532B40AF9D2A2E4F5320532E532B4013C
:10056F00F9EFC313FF0EBE08D9E4F5320532E532B9
:03057F00B404F9C8
:010582002256
:10077A00E4FF120003E4F9E99005D193FF600D123A
:0E078A000760097F647E001206AE80EB80FEE1
:10079800E4FF120003E4F9E99005DE93FF600D120F
:0C07A8000760097F327E001206AE80EB75
:0107B4002222
:10081B007F091200037F2E1207607F327E000206D3
:01082B00AE1E
:1007B5007F0C120003E4F9E99005E493FF600D1244
:0C07C5000760097F327E001206AE80EB58
:0107D1002205
:10058300EF75F06484FEEF75F06484E5F075F00AAE
:1005930084FDEF75F00A84ACF07F061200031207A6
:1005A3005AED93FF120760EC93FF1207607F327ED0
:0405B300000206AE8E
:10082C00AE077F0A12000312075A7F327E000206BF
:01083C00AE0D
:1006CE001204E67FCC12054F7F4412054FE4F5323B
:1006DE000532E532B464F91204E67FCC12054F7F81
:0406EE00BE02054FF4
:1001E100E4757A7D75790DF578F577C29112051B65
:1001F10012084D12083D7F021207D27B007A007966
:1002010021E4FD1207387A0079337D401207387FE7
:10021100307E751206AE7B007A007957E4FD120735
:10022100387A0079467D401207381204E6500312ED
:10023100077A12079812081B1207B57F087E001271
:1002410005E91206CE1206188F08120618E508C431
:10025100540FFEEFC454F02EF50975F006A424F3F3
:10026100FFE5F0340CFEE48F7A8E79F578F577129C
:10027100034A8E0A8F0BE508540F75F00AA4FFE5B7
:10028100F0C4F854F0C8EFC4540F48F9AF0912058F
:1002910083AF0112082C7B007A0079697D40120737
:1002A10038E50B450A6009AE75AF767D491203CD7D
:0D02B10012083D7F647E001207ED02023C42
:03000B00020715D4
:10071500C0E0C0D0C28D758A66758CFC0531E531A7
:10072500B4120BC28C758A66758CFC753100D0D0FD
:03073500D0E032DF
:030000000202BE3B
:0C02BE00787FE4F6D8FD75817A02030514
:10000E00BB010689828A83E0225002E722BBFE02F0
:09001E00E32289828A83E4932223
:10002700EF8DF0A4A8F0CF8CF0A428CE8DF0A42EED
:02003700FE22A7
:10003900BC000BBE0029EF8DF084FFADF022E4CCAB
:10004900F875F008EF2FFFEE33FEEC33FCEE9DEC74
:10005900984005FCEE9DFE0FD5F0E9E4CEFD22EDBA
:10006900F8F5F0EE8420D21CFEADF075F008EF2F04
:10007900FFED33FD4007985006D5F0F222C398FDF5
:050089000FD5F0EA2292
:10008E00C2D5EC30E709B2D5E4C39DFDE49CFCEE8D
:10009E0030E715B2D5E4C39FFFE49EFE120039C3CC
:1000AE00E49DFDE49CFC800312003930D507C3E4C7
:0600BE009FFFE49EFE22FC
:1000C400E88FF0A4CC8BF0A42CFCE98EF0A42CFCDB
:1000D4008AF0EDA42CFCEA8EF0A4CDA8F08BF0A459
:1000E4002DCC3825F0FDE98FF0A42CCD35F0FCEBB8
:1000F4008EF0A4FEA9F0EB8FF0A4CFC5F02ECD397D
:0F010400FEE43CFCEAA42DCE35F0FDE43CFC22E9
:1004A200C2D5E830E70FB2D5E4C39BFBE49AFAE485
:1004B20099F9E498F8EC30E717B2D51204D8120192
:1004C2004FE4C39BFBE49AFAE499F9E498F88003B9
:1004D20012014F30D50DE4C39FFFE49EFEE49DFD63
:0404E200E49CFC2278
:1002CA000201E1E493A3F8E493A34003F68001F268
:1002DA0008DFF48029E493A3F85407240CC8C33335
:1002EA00C4540F4420C8834004F456800146F6DF04
:1002FA00E4800B0102040810204080900441E47E4F
:10030A00019360BCA3FF543F30E509541FFEE493F8
:10031A00A360010ECF54C025E060A840B8E493A3BF
:10032A00FAE493A3F8E493A3C8C582C8CAC583CAEA
:10033A00F0A3C8C582C8CAC583CADFE9DEE780BEA2
:0104A100005A
:1001130075F008758200EF2FFFEE33FECD33CDCCA3
:1001230033CCC58233C5829BED9AEC99E582984026
:100133000CF582EE9BFEED9AFDEC99FC0FD5F0D603
:10014300E4CEFBE4CDFAE4CCF9A88222B800C1B92D
:100153000059BA002DEC8BF084CFCECDFCE5F0CB6B
:10016300F97818EF2FFFEE33FEED33FDEC33FCEBA4
:1001730033FB10D703994004EB99FB0FD8E5E4F95F
:10018300FA227818EF2FFFEE33FEED33FDEC33FC4C
:10019300C933C910D7059BE99A4007EC9BFCE99A40
:1001A300F90FD8E0E4C9FAE4CCFB2275F010EF2F85
:1001B300FFEE33FEED33FDCC33CCC833C810D70785
:1001C3009BEC9AE899400AED9BFDEC9AFCE899F8C0
:0E01D3000FD5F0DAE4CDFBE4CCFAE4C8F92253
:00000001FF
