:10057A003031323334353637383954657374206242
:10058A00792044533138423230004572726F7221F9
:10059A00436865636B210054656D703A0043656E6C
:0205AA007400DB
:100404000473000000001021202044657369676EA6
:10041400656420627920200013335765694C752088
:10042400616E6420597559616F6A6961001146549F
:10043400686572652773206E6F206563686F2E0090
:10044400125720207777772E686A6D63752E636F55
:100454006D2020000A6944697374616E63653A0013
:0F063800C2A57F0A7E00120647D2A57F0A7E0068
:10064700D3EF9400EE940040147D0A7C00ED1D70FA
:0D065700011CED4C70F7EF1F70E61E80E3F4
:010664002273
:0A081B008F80C290120638C2A52299
:03080E002430FF94
:0A0811008F80D290120638C2A52293
:1004DE00C2A6C2A77F3812081B7F147E00120647E1
:1004EE007F0F12081B7F147E001206477F0612082C
:1004FE001B7F147E001206477F0112081B7F147E9D
:04050E00000206479A
:05066500097F327E0058
:10066A00E4FDFCC3ED9FEC9E5015E4FBFA0BBB00C6
:0F067A00010AEB64034A70F50DBD00010C80E42A
:01068900224E
:020754008F0C08
:10075600E4F9E9C3950C5011C2A37FE87E031206A3
:090766006AD2A312066A0980E9B7
:01076F002267
:10077000EF1FAA0670011ED39400EA9400400BE418
:0A078000FDEDC3947D50E90D80F7F4
:01078A00224C
:0E080000758901758A66758CFCD2A9D2AF226B
:1007F000D295D2B2E4F531F576F575F574F573223C
:1006F400ED2480FF12081BE4F50C12000EFF120813
:1007040011740129F9E43AFA050CE50CC39410407C
:01071400E9FB
:0107150022C1
:060326008D0CAB07AA06D6
:10032C007C037DE81200398F0D7C007D64AF03AE39
:10033C00021200397C007D0A1200398D0E7C007D82
:10034C000AAF03AE021200397C007D0A1200398D0F
:10035C000FAE02AF037C007D0A120039AB05E50C31
:10036C002480FF12081BE50D12080EE50E12080E74
:10037C00E50F2430FF1208117F2E120811EB2430E8
:0E038C00FF1208117F631208117F6D02081125
:1005AC00E4FDFCC3ED9FEE6480F8EC648098501E73
:1005BC0000000000000000000000D29500000000C8
:0E05CC000000000000C2950DBD00010C80D59E
:0105DA0022FE
:10039A00D28C20B2FDC28CAD8AAF8CEFFE7C00E419
:1003AA002DFFEC3EAB07FA749A2BFB74033AFAAFB3
:1003BA00317E007C037DE8120027EF2BFFEE3AFE28
:1003CA00E48F768E75F574F573758A66758CFC7F85
:1003DA001EFE120770E47FA77E0DFDFCAB76AA75A0
:1003EA00A974A87312006FE47B207A4EF9F81204FC
:0903FA00658F768E758D748C738D
:0104030022D6
:1007BB00C290D291D2A500000000A2879200C2A5E0
:0207CB00A2008A
:0107CD002209
:0706AE007F0512066A7F3888
:1006B5001207BB40FBC290C291C2A500008F80000B
:0C06C500000000D2A500000000C2A52229
:07000300EF4480FF0206B587
:06071600EE90057A93FF4E
:10071C001207BB40FBD290C291C2A58F8000000093
:0A072C0000D2A500000000C2A522C3
:10060A007F0F7E001206B01206AE1206AE7F0512EA
:10061A00066A7F0C1206B57F0512066A0F1206B526
:0E062A001F12066A7F011206B57F0502066ADE
:1004A900D2A2E4F5320532E532B402F9C2A2E4F58A
:1004B900320532E532B4C8F9D2A2E4F5320532E5A3
:1004C90032B40AF9A2A29200E4F5320532E532B457
:0404D900C8F9A200BC
:0104DD0022FC
:1005DB00E4FED2A200C2A2EFC313FF00D2A2E4F545
:1005EB00320532E532B402F930A2054307808000B0
:0E05FB00E4F5320532E532B408F90EBE08D43C
:0106090022CE
:10051200E4FED2A200C2A2EF1392A2E4F5320532A7
:10052200E532B40AF9D2A2E4F5320532E532B40179
:10053200F9EFC313FF0EBE08D9E4F5320532E532F6
:03054200B404F905
:010545002293
:10073600E4FF120003E4F9E990059493FF600D12BB
:0E074600071C097F647E0012066A80EB80FEAD
:10078B00E4FF120003E4F9E99005A193FF6008125E
:07079B00071C12066580F047
:0107A2002234
:1007CE007F091200037F2E12071C7F327E00020665
:0107DE006AB0
:1007A3007F0C120003E4F9E99005A793FF60081298
:0707B300071C12066580F02F
:0107BA00221C
:10054600EF75F06484FEEF75F06484E5F075F00AEB
:1005560084FDEF75F00A84ACF07F061200031207E3
:1005660016ED93FF12071CEC93FF12071C7F327ED9
:040576000002066A0F
:1007DF00AE077F0A1200031207167F327E00020651
:0107EF006A9F
:10068A001204A97FCC1205127F44120512E4F53236
:10069A000532E532B464F91204A97FCC1205127F3F
:0406AA00BE02051275
:1001E100C2911204DE1208001207F07F02120754B6
:1001F1007B007A007921E4FD1206F47A0079337DDF
:10020100401206F47F307E7512066A7B007A00790F
:1002110057E4FD1206F47A0079467D401206F41285
:1002210004A9500312073612078B1207CE1207A337
:100231007FE87E031205AC30B2FD12039A12068AE2
:100241001205DB8F081205DB8F09E508C4540FFF87
:10025100E509C454F02FF50AE508540F75F00AA416
:10026100FFE5F0C4F854F0C8EFC4540F48F50BAFE4
:100271000A120546AF0B1207DF7B007A0079697D10
:10028100401206F4AE75AF767D491203261207F0CF
:090291007F647E00120770809763
:03000B000206D119
:1006D100C0E0C0D0C28D758A66758CFC0531E531EC
:1006E100B4120BC28C758A66758CFC753100D0D042
:0306F100D0E03224
:0300000002029A5F
:0C029A00787FE4F6D8FD7581760202E161
:10000E00BB010689828A83E0225002E722BBFE02F0
:09001E00E32289828A83E4932223
:10002700EF8DF0A4A8F0CF8CF0A428CE8DF0A42EED
:02003700FE22A7
:10003900C2D5EC30E709B2D5E4C39DFDE49CFCEEE2
:1000490030E715B2D5E4C39FFFE49EFE1200BEC39C
:10005900E49DFDE49CFC80031200BE30D507C3E497
:060069009FFFE49EFE2251
:10006F00E88FF0A4CC8BF0A42CFCE98EF0A42CFC30
:10007F008AF0EDA42CFCEA8EF0A4CDA8F08BF0A4AE
:10008F002DCC3825F0FDE98FF0A42CCD35F0FCEB0D
:10009F008EF0A4FEA9F0EB8FF0A4CFC5F02ECD39D2
:0F00AF00FEE43CFCEAA42DCE35F0FDE43CFC223F
:10046500C2D5E830E70FB2D5E4C39BFBE49AFAE4C2
:1004750099F9E498F8EC30E717B2D512049B12010C
:100485004FE4C39BFBE49AFAE499F9E498F88003F6
:1004950012014F30D50DE4C39FFFE49EFEE49DFDA0
:0404A500E49CFC22B5
:1002A6000201E1E493A3F8E493A34003F68001F28C
:1002B60008DFF48029E493A3F85407240CC8C33359
:1002C600C4540F4420C8834004F456800146F6DF28
:1002D600E4800B0102040810204080900404E47EB0
:1002E600019360BCA3FF543F30E509541FFEE4931D
:1002F600A360010ECF54C025E060A840B8E493A3E4
:10030600FAE493A3F8E493A3C8C582C8CAC583CA0E
:10031600F0A3C8C582C8CAC583CADFE9DEE780BEC6
:010464000097
:1000BE00BC000BBE0029EF8DF084FFADF022E4CC26
:1000CE00F875F008EF2FFFEE33FEEC33FCEE9DECEF
:1000DE00984005FCEE9DFE0FD5F0E9E4CEFD22ED35
:1000EE00F8F5F0EE8420D21CFEADF075F008EF2F7F
:1000FE00FFED33FD4007985006D5F0F222C398FD70
:05010E000FD5F0EA220C
:1001130075F008758200EF2FFFEE33FECD33CDCCA3
:1001230033CCC58233C5829BED9AEC99E582984026
:100133000CF582EE9BFEED9AFDEC99FC0FD5F0D603
:10014300E4CEFBE4CDFAE4CCF9A88222B800C1B92D
:100153000059BA002DEC8BF084CFCECDFCE5F0CB6B
:10016300F97818EF2FFFEE33FEED33FDEC33FCEBA4
:1001730033FB10D703994004EB99FB0FD8E5E4F95F
:10018300FA227818EF2FFFEE33FEED33FDEC33FC4C
:10019300C933C910D7059BE99A4007EC9BFCE99A40
:1001A300F90FD8E0E4C9FAE4CCFB2275F010EF2F85
:1001B300FFEE33FEED33FDCC33CCC833C810D70785
:1001C3009BEC9AE899400AED9BFDEC9AFCE899F8C0
:0E01D3000FD5F0DAE4CDFBE4CCFAE4C8F92253
:00000001FF
